{
  "contractName": "Bridge",
  "abi": [
    {
      "anonymous": false,
      "inputs": [
        {
          "indexed": true,
          "internalType": "uint256",
          "name": "requestId",
          "type": "uint256"
        },
        {
          "indexed": false,
          "internalType": "address",
          "name": "account",
          "type": "address"
        },
        {
          "indexed": false,
          "internalType": "uint256",
          "name": "key",
          "type": "uint256"
        },
        {
          "indexed": false,
          "internalType": "uint256",
          "name": "blockId",
          "type": "uint256"
        }
      ],
      "name": "RequestLogged",
      "type": "event"
    },
    {
      "anonymous": false,
      "inputs": [
        {
          "indexed": true,
          "internalType": "uint256",
          "name": "requestId",
          "type": "uint256"
        },
        {
          "indexed": false,
          "internalType": "address",
          "name": "account",
          "type": "address"
        },
        {
          "indexed": false,
          "internalType": "uint256",
          "name": "key",
          "type": "uint256"
        },
        {
          "indexed": false,
          "internalType": "uint256",
          "name": "blockId",
          "type": "uint256"
        },
        {
          "indexed": false,
          "internalType": "bytes",
          "name": "reply",
          "type": "bytes"
        }
      ],
      "name": "RequestServed",
      "type": "event"
    },
    {
      "inputs": [],
      "name": "getTotal",
      "outputs": [
        {
          "internalType": "uint256",
          "name": "",
          "type": "uint256"
        }
      ],
      "stateMutability": "view",
      "type": "function",
      "constant": true
    },
    {
      "inputs": [],
      "name": "getServed",
      "outputs": [
        {
          "internalType": "uint256",
          "name": "",
          "type": "uint256"
        }
      ],
      "stateMutability": "view",
      "type": "function",
      "constant": true
    },
    {
      "inputs": [],
      "name": "getPending",
      "outputs": [
        {
          "internalType": "uint256",
          "name": "",
          "type": "uint256"
        }
      ],
      "stateMutability": "view",
      "type": "function",
      "constant": true
    },
    {
      "inputs": [
        {
          "internalType": "uint256",
          "name": "id",
          "type": "uint256"
        }
      ],
      "name": "getRequest",
      "outputs": [
        {
          "components": [
            {
              "internalType": "address",
              "name": "account",
              "type": "address"
            },
            {
              "internalType": "uint256",
              "name": "key",
              "type": "uint256"
            },
            {
              "internalType": "uint256",
              "name": "blockId",
              "type": "uint256"
            },
            {
              "internalType": "uint256",
              "name": "date",
              "type": "uint256"
            },
            {
              "internalType": "uint256",
              "name": "liveness",
              "type": "uint256"
            },
            {
              "internalType": "uint256",
              "name": "reward",
              "type": "uint256"
            },
            {
              "internalType": "bool",
              "name": "served",
              "type": "bool"
            },
            {
              "internalType": "bytes",
              "name": "response",
              "type": "bytes"
            }
          ],
          "internalType": "struct Bridge.Request",
          "name": "",
          "type": "tuple"
        }
      ],
      "stateMutability": "view",
      "type": "function",
      "constant": true
    },
    {
      "inputs": [],
      "name": "getCacheSize",
      "outputs": [
        {
          "internalType": "uint256",
          "name": "",
          "type": "uint256"
        }
      ],
      "stateMutability": "view",
      "type": "function",
      "constant": true
    },
    {
      "inputs": [],
      "name": "getRequestFee",
      "outputs": [
        {
          "internalType": "uint256",
          "name": "",
          "type": "uint256"
        }
      ],
      "stateMutability": "view",
      "type": "function",
      "constant": true
    },
    {
      "inputs": [],
      "name": "getRequests",
      "outputs": [
        {
          "components": [
            {
              "internalType": "address",
              "name": "account",
              "type": "address"
            },
            {
              "internalType": "uint256",
              "name": "key",
              "type": "uint256"
            },
            {
              "internalType": "uint256",
              "name": "blockId",
              "type": "uint256"
            },
            {
              "internalType": "uint256",
              "name": "date",
              "type": "uint256"
            },
            {
              "internalType": "uint256",
              "name": "liveness",
              "type": "uint256"
            },
            {
              "internalType": "uint256",
              "name": "reward",
              "type": "uint256"
            },
            {
              "internalType": "bool",
              "name": "served",
              "type": "bool"
            },
            {
              "internalType": "bytes",
              "name": "response",
              "type": "bytes"
            }
          ],
          "internalType": "struct Bridge.Request[]",
          "name": "",
          "type": "tuple[]"
        }
      ],
      "stateMutability": "view",
      "type": "function",
      "constant": true
    },
    {
      "inputs": [
        {
          "internalType": "address",
          "name": "_account",
          "type": "address"
        },
        {
          "internalType": "uint256",
          "name": "_key",
          "type": "uint256"
        },
        {
          "internalType": "uint256",
          "name": "_blockId",
          "type": "uint256"
        },
        {
          "internalType": "uint256",
          "name": "_liveness",
          "type": "uint256"
        },
        {
          "internalType": "uint256",
          "name": "_reward",
          "type": "uint256"
        }
      ],
      "name": "request",
      "outputs": [
        {
          "internalType": "uint256",
          "name": "",
          "type": "uint256"
        }
      ],
      "stateMutability": "nonpayable",
      "type": "function"
    },
    {
      "inputs": [
        {
          "internalType": "uint256",
          "name": "_requestId",
          "type": "uint256"
        },
        {
          "components": [
            {
              "internalType": "bytes32",
              "name": "stateRoot",
              "type": "bytes32"
            },
            {
              "internalType": "address",
              "name": "account",
              "type": "address"
            },
            {
              "internalType": "bytes[]",
              "name": "accountProof",
              "type": "bytes[]"
            },
            {
              "internalType": "bytes32",
              "name": "storageHash",
              "type": "bytes32"
            },
            {
              "internalType": "bytes",
              "name": "key",
              "type": "bytes"
            },
            {
              "internalType": "bytes",
              "name": "value",
              "type": "bytes"
            },
            {
              "internalType": "bytes[]",
              "name": "storageProof",
              "type": "bytes[]"
            }
          ],
          "internalType": "struct Bridge.StateProof",
          "name": "_stateProof",
          "type": "tuple"
        }
      ],
      "name": "verify",
      "outputs": [
        {
          "internalType": "bool",
          "name": "",
          "type": "bool"
        }
      ],
      "stateMutability": "nonpayable",
      "type": "function"
    }
  ],
  "bytecode": "0x608060405234801561001057600080fd5b506124a3806100206000396000f3fe608060405234801561001057600080fd5b50600436106100925760003560e01c806376500b3b1161006657806376500b3b14610121578063775a25e31461013f5780638813ce121461015d578063c58343ef1461017b578063eadada4f146101ab57610092565b8062c44883146100975780630d37b537146100b557806311ae9ed2146100d3578063696e4349146100f1575b600080fd5b61009f6101db565b6040516100ac919061222a565b60405180910390f35b6100bd6101e5565b6040516100ca919061222a565b60405180910390f35b6100db6101ef565b6040516100e8919061222a565b60405180910390f35b61010b60048036038101906101069190611c93565b6101fd565b604051610118919061222a565b60405180910390f35b6101296103c7565b604051610136919061222a565b60405180910390f35b6101476103d1565b604051610154919061222a565b60405180910390f35b6101656103da565b60405161017291906121ab565b60405180910390f35b61019560048036038101906101909190611d0a565b61057f565b6040516101a29190612208565b60405180910390f35b6101c560048036038101906101c09190611d33565b61074e565b6040516101d291906121cd565b60405180910390f35b6000600154905090565b6000600354905090565b600060015460005403905090565b6000610207611931565b60008054905087826000019073ffffffffffffffffffffffffffffffffffffffff16908173ffffffffffffffffffffffffffffffffffffffff168152505086826020018181525050858260400181815250504282606001818152505084826080018181525050838260a001818152505060008260c0019015159081151581525050600482908060018154018082558091505060019003906000526020600020906008020160009091909190915060008201518160000160006101000a81548173ffffffffffffffffffffffffffffffffffffffff021916908373ffffffffffffffffffffffffffffffffffffffff1602179055506020820151816001015560408201518160020155606082015181600301556080820151816004015560a0820151816005015560c08201518160060160006101000a81548160ff02191690831515021790555060e082015181600701908051906020019061036992919061198e565b505050807f86df285e4c9ec66158685ebf9d0072d631fa0602bcee74c113d8f2e573fbb93d8989896040516103a093929190612128565b60405180910390a26000808154809291906001019190505550809250505095945050505050565b6000600254905090565b60008054905090565b60606004805480602002602001604051908101604052809291908181526020016000905b828210156105765783829060005260206000209060080201604051806101000160405290816000820160009054906101000a900473ffffffffffffffffffffffffffffffffffffffff1673ffffffffffffffffffffffffffffffffffffffff1673ffffffffffffffffffffffffffffffffffffffff16815260200160018201548152602001600282015481526020016003820154815260200160048201548152602001600582015481526020016006820160009054906101000a900460ff16151515158152602001600782018054600181600116156101000203166002900480601f01602080910402602001604051908101604052809291908181526020018280546001816001161561010002031660029004801561055e5780601f106105335761010080835404028352916020019161055e565b820191906000526020600020905b81548152906001019060200180831161054157829003601f168201915b505050505081525050815260200190600101906103fe565b50505050905090565b610587611931565b8160001115801561059c575060048054905082105b6105db576040517f08c379a00000000000000000000000000000000000000000000000000000000081526004016105d2906121e8565b60405180910390fd5b600482815481106105e857fe5b9060005260206000209060080201604051806101000160405290816000820160009054906101000a900473ffffffffffffffffffffffffffffffffffffffff1673ffffffffffffffffffffffffffffffffffffffff1673ffffffffffffffffffffffffffffffffffffffff16815260200160018201548152602001600282015481526020016003820154815260200160048201548152602001600582015481526020016006820160009054906101000a900460ff16151515158152602001600782018054600181600116156101000203166002900480601f01602080910402602001604051908101604052809291908181526020018280546001816001161561010002031660029004801561073e5780601f106107135761010080835404028352916020019161073e565b820191906000526020600020905b81548152906001019060200180831161072157829003601f168201915b5050505050815250509050919050565b6000606082604001515167ffffffffffffffff8111801561076e57600080fd5b506040519080825280602002602001820160405280156107a857816020015b610795611a0e565b81526020019060019003908161078d5790505b50905060005b8360400151518110156107ff576107db846040015182815181106107ce57fe5b6020026020010151610bcc565b8282815181106107e757fe5b602002602001018190525080806001019150506107ae565b50606061085a8460000151856020015160405160200161081f91906120db565b6040516020818303038152906040528051906020012060405160200161084591906120f6565b60405160208183030381529060405284610bfa565b905060008151141561087157600092505050610bc6565b610879611a28565b606061088c61088784610bcc565b6110c8565b9050600481511461089c57600080fd5b60018260000190151590811515815250506108ca816000815181106108bd57fe5b60200260200101516111bc565b8260200181815250506108f0816001815181106108e357fe5b60200260200101516111bc565b8260400181815250506109168160028151811061090957fe5b60200260200101516111bc565b60001b82606001818152505061093f8160038151811061093257fe5b60200260200101516111bc565b60001b826080018181525050600086608001516040516020016109629190612111565b60405160208183030381529060405280519060200120905060008760c0015151905060608167ffffffffffffffff8111801561099d57600080fd5b506040519080825280602002602001820160405280156109d757816020015b6109c4611a0e565b8152602001906001900390816109bc5790505b50905060005b82811015610a2957610a058a60c0015182815181106109f857fe5b6020026020010151610bcc565b828281518110610a1157fe5b602002602001018190525080806001019150506109dd565b506060610a5a8a6060015185604051602001610a4591906120f6565b60405160208183030381529060405284610bfa565b9050600081511415610a7757600098505050505050505050610bc6565b600160048c81548110610a8657fe5b906000526020600020906008020160060160006101000a81548160ff021916908315150217905550610abf610aba82610bcc565b611216565b60048c81548110610acc57fe5b90600052602060002090600802016007019080519060200190610af092919061198e565b508a7fb14e488aa40811d5eeaff70f19947c1bb4d563014debc59da306d98b27350cc260048d81548110610b2057fe5b906000526020600020906008020160000160009054906101000a900473ffffffffffffffffffffffffffffffffffffffff1660048e81548110610b5f57fe5b90600052602060002090600802016001015460048f81548110610b7e57fe5b906000526020600020906008020160020154610ba1610b9c87610bcc565b611216565b604051610bb1949392919061215f565b60405180910390a26001985050505050505050505b92915050565b610bd4611a0e565b600060208301905060405180604001604052808451815260200182815250915050919050565b606080610c088460006112a7565b90506000806060610c17611a0e565b600087511415610ca8577f56e81f171bcc55a6ff8345e692c0f86e5b48e01b996cadc001622fb5e363b42160001b8914610c5057600080fd5b600067ffffffffffffffff81118015610c6857600080fd5b506040519080825280601f01601f191660200182016040528015610c9b5781602001600182028036833780820191505090505b50955050505050506110c1565b60005b87518110156110ba57600081148015610cdf5750610cdb888281518110610cce57fe5b6020026020010151611445565b8a14155b15610ce957600080fd5b60008114158015610d155750610d11888281518110610d0457fe5b602002602001015161146a565b8414155b15610d1f57600080fd5b610d3b888281518110610d2e57fe5b60200260200101516110c8565b9250600283511415610f2c5760006060610d70610d6b86600081518110610d5e57fe5b6020026020010151611216565b6114c0565b80925081935050506000610d85888a84611575565b905080880197508151811015610e025760018b5103841015610da657600080fd5b600067ffffffffffffffff81118015610dbe57600080fd5b506040519080825280601f01601f191660200182016040528015610df15781602001600182028036833780820191505090505b5099505050505050505050506110c1565b8215610eae5760018b5103841015610e1957600080fd5b8851881015610e7e57600067ffffffffffffffff81118015610e3a57600080fd5b506040519080825280601f01601f191660200182016040528015610e6d5781602001600182028036833780820191505090505b5099505050505050505050506110c1565b85600181518110610e8b57fe5b60200260200101519450610e9e85611216565b99505050505050505050506110c1565b60018b5103841415610ebf57600080fd5b610edc86600181518110610ecf57fe5b602002602001015161162f565b610f0457610efd86600181518110610ef057fe5b602002602001015161167d565b9650610f24565b610f2186600181518110610f1457fe5b6020026020010151611445565b96505b5050506110ad565b6011835114156110ac5785518514611071576000868681518110610f4c57fe5b602001015160f81c60f81b60f81c905060018601955060108160ff1610610f7257600080fd5b610f91848260ff1681518110610f8457fe5b60200260200101516116a1565b156110005760018951038214610fa657600080fd5b600067ffffffffffffffff81118015610fbe57600080fd5b506040519080825280601f01601f191660200182016040528015610ff15781602001600182028036833780820191505090505b509750505050505050506110c1565b61101f848260ff168151811061101257fe5b602002602001015161162f565b61104957611042848260ff168151811061103557fe5b602002602001015161167d565b945061106b565b611068848260ff168151811061105b57fe5b6020026020010151611445565b94505b506110ab565b6001885103811461108157600080fd5b61109e8360108151811061109157fe5b6020026020010151611216565b96505050505050506110c1565b5b5b8080600101915050610cab565b5050505050505b9392505050565b60606110d38261162f565b6110dc57600080fd5b60006110e7836116da565b905060608167ffffffffffffffff8111801561110257600080fd5b5060405190808252806020026020018201604052801561113c57816020015b611129611a0e565b8152602001906001900390816111215790505b509050600061114e8560200151611747565b8560200151019050600080600090505b848110156111af5761116f836117d0565b915060405180604001604052808381526020018481525084828151811061119257fe5b60200260200101819052508183019250808060010191505061115e565b5082945050505050919050565b60008082600001511180156111d657506021826000015111155b6111df57600080fd5b6000806111eb84611888565b91509150600082519050602082101561120b57816020036101000a810490505b809350505050919050565b6060600082600001511161122957600080fd5b60008061123584611888565b9150915060608167ffffffffffffffff8111801561125257600080fd5b506040519080825280601f01601f1916602001820160405280156112855781602001600182028036833780820191505090505b509050600081602001905061129b8482856118c0565b81945050505050919050565b606060008351116112b757600080fd5b600060028451029050808311156112cd57600080fd5b82810390508067ffffffffffffffff811180156112e957600080fd5b506040519080825280601f01601f19166020018201604052801561131c5781602001600182028036833780820191505090505b5091506000808490505b8285018110156114325760006002828161133c57fe5b0614156113b457600f6004876002848161135257fe5b048151811061135d57fe5b602001015160f81c60f81b60f81c60ff16901c1660f81b84838151811061138057fe5b60200101907effffffffffffffffffffffffffffffffffffffffffffffffffffffffffffff1916908160001a905350611421565b600f600087600284816113c357fe5b04815181106113ce57fe5b602001015160f81c60f81b60f81c60ff16901c1660f81b8483815181106113f157fe5b60200101907effffffffffffffffffffffffffffffffffffffffffffffffffffffffffffff1916908160001a9053505b600182019150600181019050611326565b508251811461143d57fe5b505092915050565b6000808260200151905060008360000151905060008183209050809350505050919050565b60006020826000015110156114895761148282611445565b90506114bb565b61149282611445565b6040516020016114a291906120f6565b6040516020818303038152906040528051906020012090505b919050565b6000606060008351116114d257600080fd5b6000600f6004856000815181106114e557fe5b602001015160f81c60f81b60f81c60ff16901c1660ff16905060008082141561151557600290506000935061155f565b600182141561152b57600190506000935061155e565b600282141561154157600290506001935061155d565b600382141561155757600190506001935061155c565b600080fd5b5b5b5b8361156a86836112a7565b935093505050915091565b600080600090505b835185820110801561158f5750825181105b15611623578281815181106115a057fe5b602001015160f81c60f81b7effffffffffffffffffffffffffffffffffffffffffffffffffffffffffffff191684868301815181106115db57fe5b602001015160f81c60f81b7effffffffffffffffffffffffffffffffffffffffffffffffffffffffffffff1916146116165780915050611628565b808060010191505061157d565b809150505b9392505050565b600080826000015114156116465760009050611678565b60008083602001519050805160001a915060c060ff168260ff16101561167157600092505050611678565b6001925050505b919050565b600080600061168b84611888565b9150915060008183209050809350505050919050565b600060018260000151146116b857600090506116d5565b60008083602001519050805160001a915060808260ff1614925050505b919050565b600080826000015114156116f15760009050611742565b6000806117018460200151611747565b84602001510190506000846000015185602001510190505b8082101561173b5761172a826117d0565b820191508280600101935050611719565b8293505050505b919050565b600080825160001a9050608060ff168110156117675760009150506117cb565b60b860ff1681108061178c575060c060ff16811015801561178b575060f860ff1681105b5b1561179b5760019150506117cb565b60c060ff168110156117bb5760018060b80360ff168203019150506117cb565b60018060f80360ff168203019150505b919050565b6000806000835160001a9050608060ff168110156117f1576001915061187e565b60b860ff1681101561180e576001608060ff16820301915061187d565b60c060ff1681101561183e5760b78103600185019450806020036101000a8551046001820181019350505061187c565b60f860ff1681101561185b57600160c060ff16820301915061187b565b60f78103600185019450806020036101000a855104600182018101935050505b5b5b5b8192505050919050565b600080600061189a8460200151611747565b905060008185602001510190506000828660000151039050818194509450505050915091565b60008114156118ce5761192c565b5b602060ff1681106118fe5782518252602060ff1683019250602060ff1682019150602060ff16810390506118cf565b600081111561192b576000600182602060ff16036101000a03905080198451168184511681811785525050505b5b505050565b604051806101000160405280600073ffffffffffffffffffffffffffffffffffffffff1681526020016000815260200160008152602001600081526020016000815260200160008152602001600015158152602001606081525090565b828054600181600116156101000203166002900490600052602060002090601f016020900481019282601f106119cf57805160ff19168380011785556119fd565b828001600101855582156119fd579182015b828111156119fc5782518255916020019190600101906119e1565b5b509050611a0a9190611a5f565b5090565b604051806040016040528060008152602001600081525090565b6040518060a00160405280600015158152602001600081526020016000815260200160008019168152602001600080191681525090565b5b80821115611a78576000816000905550600101611a60565b5090565b600081359050611a8b81612428565b92915050565b600082601f830112611aa257600080fd5b8135611ab5611ab082612272565b612245565b9150818183526020840193506020810190508360005b83811015611afb5781358601611ae18882611b1a565b845260208401935060208301925050600181019050611acb565b5050505092915050565b600081359050611b148161243f565b92915050565b600082601f830112611b2b57600080fd5b8135611b3e611b398261229a565b612245565b91508082526020830160208301858383011115611b5a57600080fd5b611b6583828461239a565b50505092915050565b600060e08284031215611b8057600080fd5b611b8a60e0612245565b90506000611b9a84828501611b05565b6000830152506020611bae84828501611a7c565b602083015250604082013567ffffffffffffffff811115611bce57600080fd5b611bda84828501611a91565b6040830152506060611bee84828501611b05565b606083015250608082013567ffffffffffffffff811115611c0e57600080fd5b611c1a84828501611b1a565b60808301525060a082013567ffffffffffffffff811115611c3a57600080fd5b611c4684828501611b1a565b60a08301525060c082013567ffffffffffffffff811115611c6657600080fd5b611c7284828501611a91565b60c08301525092915050565b600081359050611c8d81612456565b92915050565b600080600080600060a08688031215611cab57600080fd5b6000611cb988828901611a7c565b9550506020611cca88828901611c7e565b9450506040611cdb88828901611c7e565b9350506060611cec88828901611c7e565b9250506080611cfd88828901611c7e565b9150509295509295909350565b600060208284031215611d1c57600080fd5b6000611d2a84828501611c7e565b91505092915050565b60008060408385031215611d4657600080fd5b6000611d5485828601611c7e565b925050602083013567ffffffffffffffff811115611d7157600080fd5b611d7d85828601611b6e565b9150509250929050565b6000611d938383611f5d565b905092915050565b611da481612348565b82525050565b611db381612348565b82525050565b611dca611dc582612348565b6123dc565b82525050565b6000611ddb826122d6565b611de581856122f9565b935083602082028501611df7856122c6565b8060005b85811015611e335784840389528151611e148582611d87565b9450611e1f836122ec565b925060208a01995050600181019050611dfb565b50829750879550505050505092915050565b611e4e8161235a565b82525050565b611e5d8161235a565b82525050565b611e74611e6f82612366565b6123ee565b82525050565b6000611e85826122e1565b611e8f818561230a565b9350611e9f8185602086016123a9565b611ea88161240a565b840191505092915050565b6000611ebe826122e1565b611ec8818561231b565b9350611ed88185602086016123a9565b611ee18161240a565b840191505092915050565b6000611ef7826122e1565b611f01818561232c565b9350611f118185602086016123a9565b80840191505092915050565b6000611f2a601a83612337565b91507f4572726f723a20696e76616c696420726571756573742069642e0000000000006000830152602082019050919050565b600061010083016000830151611f766000860182611d9b565b506020830151611f8960208601826120bd565b506040830151611f9c60408601826120bd565b506060830151611faf60608601826120bd565b506080830151611fc260808601826120bd565b5060a0830151611fd560a08601826120bd565b5060c0830151611fe860c0860182611e45565b5060e083015184820360e08601526120008282611e7a565b9150508091505092915050565b6000610100830160008301516120266000860182611d9b565b50602083015161203960208601826120bd565b50604083015161204c60408601826120bd565b50606083015161205f60608601826120bd565b50608083015161207260808601826120bd565b5060a083015161208560a08601826120bd565b5060c083015161209860c0860182611e45565b5060e083015184820360e08601526120b08282611e7a565b9150508091505092915050565b6120c681612390565b82525050565b6120d581612390565b82525050565b60006120e78284611db9565b60148201915081905092915050565b60006121028284611e63565b60208201915081905092915050565b600061211d8284611eec565b915081905092915050565b600060608201905061213d6000830186611daa565b61214a60208301856120cc565b61215760408301846120cc565b949350505050565b60006080820190506121746000830187611daa565b61218160208301866120cc565b61218e60408301856120cc565b81810360608301526121a08184611eb3565b905095945050505050565b600060208201905081810360008301526121c58184611dd0565b905092915050565b60006020820190506121e26000830184611e54565b92915050565b6000602082019050818103600083015261220181611f1d565b9050919050565b60006020820190508181036000830152612222818461200d565b905092915050565b600060208201905061223f60008301846120cc565b92915050565b6000604051905081810181811067ffffffffffffffff8211171561226857600080fd5b8060405250919050565b600067ffffffffffffffff82111561228957600080fd5b602082029050602081019050919050565b600067ffffffffffffffff8211156122b157600080fd5b601f19601f8301169050602081019050919050565b6000819050602082019050919050565b600081519050919050565b600081519050919050565b6000602082019050919050565b600082825260208201905092915050565b600082825260208201905092915050565b600082825260208201905092915050565b600081905092915050565b600082825260208201905092915050565b600061235382612370565b9050919050565b60008115159050919050565b6000819050919050565b600073ffffffffffffffffffffffffffffffffffffffff82169050919050565b6000819050919050565b82818337600083830152505050565b60005b838110156123c75780820151818401526020810190506123ac565b838111156123d6576000848401525b50505050565b60006123e7826123f8565b9050919050565b6000819050919050565b60006124038261241b565b9050919050565b6000601f19601f8301169050919050565b60008160601b9050919050565b61243181612348565b811461243c57600080fd5b50565b61244881612366565b811461245357600080fd5b50565b61245f81612390565b811461246a57600080fd5b5056fea2646970667358221220d7ce85d0ea2847ea5b3e5c5d056933e1968ca143218d7bb7fb22d8b4c71cbdd364736f6c634300060c0033",
  "immutableReferences": {},
  "source": "// SPDX-License-Identifier: MIT\npragma solidity 0.6.12;\npragma experimental ABIEncoderV2;\n\nimport {RLPReader} from \"./lib/RLPReader.sol\";\nimport {MerklePatriciaProofVerifier} from \"./lib/MerklePatriciaProofVerifier.sol\";\n\n/**\n *  @title Bridge smart contract for cross-chain query authentication\n *  @author Matteo Loporchio\n *\n *  @dev The main goal of this contract is to allow users\n *  of a \"source\" blockchain C1 to read values from another \"target\" chain C2.\n *  The value is guaranteed to be authentic thanks to appropriate\n *  verification mechanisms based on cryptography.\n */\ncontract Bridge {\n  using RLPReader for RLPReader.RLPItem;\n  using RLPReader for bytes;\n\n  // Counts the total number of requests.\n  uint private requestCounter;\n  // Counts the number of served requests.\n  uint private servedCounter;\n  // Number of most recent blocks to keep inside the contract.\n  uint private cacheSize;\n  // TODO: require a fee for protecting from DOS attacks.\n  uint private requestFee;\n\n  ///\n  // struct Header {\n  //   bytes32 stateRootHash;\n  //   uint256 number;\n  //   uint256 timestamp;\n  //   //bytes32 hash;\n  // }\n\n  /**\n   *  @dev Represents a generic request that is submitted to the contract.\n   *  A C1 user wants to read the value of a variable located inside\n   *  a given contract on C2.\n   */\n  struct Request {\n    address account; // Address of the C2 contract we want to read data from.\n    uint key; // Numeric identifier of the C2 variable we want to read.\n    uint blockId; // Identifier of the C2 block we want to read data from.\n    uint date; // Timestamp of the request.\n    uint liveness; // TODO: add expiration.\n    uint reward; // TODO: add rewards.\n    bool served;  // Equals true if the request has been served, false otherwise.\n    bytes response; // The value associated with the variable.\n  }\n\n  /**\n   *\n   */\n  struct StateProof {\n    bytes32 stateRoot;\n    address account;\n    bytes[] accountProof;\n    bytes32 storageHash;\n    bytes key;\n    bytes value;\n    bytes[] storageProof;\n  }\n\n  /**\n   *\n   */\n  struct Account {\n    bool exists;\n    uint256 nonce;\n    uint256 balance;\n    bytes32 storageRoot;\n    bytes32 codeHash;\n  }\n\n  // Header[] private headers;\n\n  /**\n   *  @dev This data structure keeps track of all requests.\n   *  NOTICE: the id of a request coincides with its index in the array.\n   */\n  Request[] private requests;\n\n  /**\n   *  @dev This event is emitted whenever a new request is created\n   *  and saved inside the contract.\n   */\n  event RequestLogged(\n    uint indexed requestId,\n    address account,\n    uint key,\n    uint blockId\n  );\n\n  /**\n   *  @dev This event is emitted whenever a request is correctly answered\n   *  (i.e., the corresponding value is verified as authentic).\n   */\n  event RequestServed(\n    uint indexed requestId,\n    address account,\n    uint key,\n    uint blockId,\n    bytes reply\n  );\n\n  /**\n   * @dev Returns the total number of received requests.\n   * @return the total number of requests received by the contract\n   */\n  function getTotal() public view returns (uint) {\n    return requestCounter;\n  }\n\n  /**\n   * @dev Returns the number of served requests.\n   * @return the total number of requests served by the contract\n   */\n  function getServed() public view returns (uint) {\n    return servedCounter;\n  }\n\n  /**\n   * @dev Returns the number of pending (i.e., not served) requests.\n   * @return the total number of pending requests\n   */\n  function getPending() public view returns (uint) {\n    return requestCounter-servedCounter;\n  }\n\n  /**\n   * @dev Returns the number of pending (i.e., not served) requests.\n   * @return the total number of pending requests\n   */\n  /// Returns the request with the specified identifier.\n  function getRequest(uint id) public view returns (Request memory) {\n    // Check if the supplied index is legal.\n    require(0 <= id && id < requests.length, \"Error: invalid request id.\");\n    return requests[id];\n  }\n\n  //\n  function getCacheSize() public view returns (uint) {\n    return cacheSize;\n  }\n\n  function getRequestFee() public view returns (uint) {\n    return requestFee;\n  }\n\n  // Returns the full list of requests stored in the contract.\n  function getRequests() public view returns (Request[] memory) {\n    return requests;\n  }\n\n  // Returns the full list of block headers stored in the contract.\n  // function getHeaders() public view returns (Header[] memory) {\n  //   return headers;\n  // }\n\n  // Used for proposing a new block header.\n  // function addHeader(\n  //   bytes32 _stateRootHash,\n  //   uint256 _number,\n  //   uint256 _timestamp\n  // ) public {\n  //   Header memory result;\n  //   result.stateRootHash = _stateRootHash;\n  //   result.number = _number;\n  //   result.timestamp = _timestamp;\n  //   headers.push(result);\n  // }\n\n  /**\n   *  @dev This function creates a new request and submits it to the contract.\n   *\n   *  @param _account the contract address\n   *  @param _key the variable identifier\n   *  @param _blockId the identifier of the block from which we want to read the state\n   *  @param _liveness (not used)\n   *  @param _reward (not used)\n   *\n   *  @return the identifier of the newly created request.\n   *\n   *  TODO: add liveness and request fee (and make the function payable).\n   */\n  function request(address _account, uint _key, uint _blockId, uint _liveness,\n  uint _reward) public returns (uint) {\n    Request memory r;\n    uint requestId = requestCounter;\n    r.account = _account;\n    r.key = _key;\n    r.blockId = _blockId;\n    r.date = block.timestamp;\n    r.liveness = _liveness;\n    r.reward = _reward;\n    r.served = false;\n    requests.push(r);\n    emit RequestLogged(requestId, _account, _key, _blockId);\n    requestCounter++;\n    return requestId;\n  }\n\n  /**\n   *  @dev This method can be used to verify an Ethereum state proof.\n   *  The proof certifies that a given variable X inside a contract C\n   *  has a certain value V.\n   *\n   *  Ethereum state proofs are made up of two distinct parts:\n   *\n   *    1) An account proof, which certifies the existence of C.\n   *    2) A storage proof, which certifies the existence of X=V inside C.\n   *\n   *  @param\n   *  @param\n   *  @return\n   */\n  function verify(uint _requestId, StateProof memory _stateProof) public returns (bool) {\n    // Convert account proof to a list of RLPItems.\n    RLPReader.RLPItem[] memory accountProof = new RLPReader.RLPItem[](_stateProof.accountProof.length);\n    for (uint i = 0; i < _stateProof.accountProof.length; i++) {\n      accountProof[i] = RLPReader.toRlpItem(_stateProof.accountProof[i]);\n    }\n    // Verify the account proof.\n    bytes memory acctRlpBytes = MerklePatriciaProofVerifier.extractProofValue(\n      _stateProof.stateRoot,\n      abi.encodePacked(keccak256(abi.encodePacked(_stateProof.account))),\n      accountProof\n    );\n    // If verification has failed, return immediately.\n    if (acctRlpBytes.length == 0) return false;\n    // Otherwise, we can use the result to decode the account fields.\n    Account memory account;\n    RLPReader.RLPItem[] memory acctFields = acctRlpBytes.toRlpItem().toList();\n    require(acctFields.length == 4);\n    account.exists = true;\n    account.nonce = acctFields[0].toUint();\n    account.balance = acctFields[1].toUint();\n    account.storageRoot = bytes32(acctFields[2].toUint());\n    account.codeHash = bytes32(acctFields[3].toUint());\n    // At this point, we are ready to verify the storage proof, which\n    // constitutes the second part of the state proof.\n    bytes32 slotHash = keccak256(abi.encodePacked(_stateProof.key));\n    // We convert the storage proof to a list of RLPItems.\n    uint storageProofLength = _stateProof.storageProof.length;\n    RLPReader.RLPItem[] memory storageProof = new RLPReader.RLPItem[](storageProofLength);\n    for (uint i = 0; i < storageProofLength; i++) {\n      storageProof[i] = RLPReader.toRlpItem(_stateProof.storageProof[i]);\n    }\n    // Verify the storage proof.\n    bytes memory valueRlpBytes = MerklePatriciaProofVerifier.extractProofValue(\n      _stateProof.storageHash,\n      abi.encodePacked(slotHash),\n      storageProof\n    );\n    if (valueRlpBytes.length == 0) return false;\n    // The proof is accepted: first we record this fact on the blockchain.\n    requests[_requestId].served = true;\n    requests[_requestId].response = RLPReader.toRlpItem(valueRlpBytes).toBytes();\n    // Then we trigger a `RequestServed` event to notify all possible listeners.\n    emit RequestServed(\n      _requestId, requests[_requestId].account,\n      requests[_requestId].key, requests[_requestId].blockId, RLPReader.toRlpItem(valueRlpBytes).toBytes()\n    );\n    return true;\n  }\n}\n",
  "sourcePath": "/Users/matteo/Documents/GitHub/XCQA/main/contracts/Bridge.sol",
  "compiler": {
    "name": "solc",
    "version": "0.6.12+commit.27d51765.Emscripten.clang"
  },
  "schemaVersion": "3.4.8",
  "updatedAt": "2022-09-29T06:07:40.327Z",
  "networkType": "ethereum",
  "devdoc": {
    "author": "Matteo Loporchio",
    "details": "The main goal of this contract is to allow users  of a \"source\" blockchain C1 to read values from another \"target\" chain C2.  The value is guaranteed to be authentic thanks to appropriate  verification mechanisms based on cryptography.",
    "events": {
      "RequestLogged(uint256,address,uint256,uint256)": {
        "details": "This event is emitted whenever a new request is created  and saved inside the contract."
      },
      "RequestServed(uint256,address,uint256,uint256,bytes)": {
        "details": "This event is emitted whenever a request is correctly answered  (i.e., the corresponding value is verified as authentic)."
      }
    },
    "kind": "dev",
    "methods": {
      "getPending()": {
        "details": "Returns the number of pending (i.e., not served) requests.",
        "returns": {
          "_0": "the total number of pending requests"
        }
      },
      "getServed()": {
        "details": "Returns the number of served requests.",
        "returns": {
          "_0": "the total number of requests served by the contract"
        }
      },
      "getTotal()": {
        "details": "Returns the total number of received requests.",
        "returns": {
          "_0": "the total number of requests received by the contract"
        }
      },
      "request(address,uint256,uint256,uint256,uint256)": {
        "details": "This function creates a new request and submits it to the contract.",
        "params": {
          "_account": "the contract address",
          "_blockId": "the identifier of the block from which we want to read the state",
          "_key": "the variable identifier",
          "_liveness": "(not used)",
          "_reward": "(not used)"
        },
        "returns": {
          "_0": "the identifier of the newly created request.  TODO: add liveness and request fee (and make the function payable)."
        }
      },
      "verify(uint256,(bytes32,address,bytes[],bytes32,bytes,bytes,bytes[]))": {
        "details": "This method can be used to verify an Ethereum state proof.  The proof certifies that a given variable X inside a contract C  has a certain value V.  Ethereum state proofs are made up of two distinct parts:    1) An account proof, which certifies the existence of C.    2) A storage proof, which certifies the existence of X=V inside C.",
        "params": {
          "": "@param"
        },
        "returns": {
          "_0": ""
        }
      }
    },
    "stateVariables": {
      "requests": {
        "details": "This data structure keeps track of all requests.  NOTICE: the id of a request coincides with its index in the array."
      }
    },
    "title": "Bridge smart contract for cross-chain query authentication",
    "version": 1
  },
  "userdoc": {
    "kind": "user",
    "methods": {
      "getRequest(uint256)": {
        "notice": "Returns the request with the specified identifier."
      }
    },
    "version": 1
  }
}